{
  "contractName": "BoredPetsNFT",
  "abi": [
    {
      "inputs": [
        {
          "internalType": "address",
          "name": "_marketplaceContract",
          "type": "address"
        }
      ],
      "stateMutability": "nonpayable",
      "type": "constructor"
    },
    {
      "anonymous": false,
      "inputs": [
        {
          "indexed": true,
          "internalType": "address",
          "name": "owner",
          "type": "address"
        },
        {
          "indexed": true,
          "internalType": "address",
          "name": "approved",
          "type": "address"
        },
        {
          "indexed": true,
          "internalType": "uint256",
          "name": "tokenId",
          "type": "uint256"
        }
      ],
      "name": "Approval",
      "type": "event"
    },
    {
      "anonymous": false,
      "inputs": [
        {
          "indexed": true,
          "internalType": "address",
          "name": "owner",
          "type": "address"
        },
        {
          "indexed": true,
          "internalType": "address",
          "name": "operator",
          "type": "address"
        },
        {
          "indexed": false,
          "internalType": "bool",
          "name": "approved",
          "type": "bool"
        }
      ],
      "name": "ApprovalForAll",
      "type": "event"
    },
    {
      "anonymous": false,
      "inputs": [
        {
          "indexed": false,
          "internalType": "uint256",
          "name": "",
          "type": "uint256"
        }
      ],
      "name": "NFTMinted",
      "type": "event"
    },
    {
      "anonymous": false,
      "inputs": [
        {
          "indexed": true,
          "internalType": "address",
          "name": "from",
          "type": "address"
        },
        {
          "indexed": true,
          "internalType": "address",
          "name": "to",
          "type": "address"
        },
        {
          "indexed": true,
          "internalType": "uint256",
          "name": "tokenId",
          "type": "uint256"
        }
      ],
      "name": "Transfer",
      "type": "event"
    },
    {
      "inputs": [
        {
          "internalType": "address",
          "name": "to",
          "type": "address"
        },
        {
          "internalType": "uint256",
          "name": "tokenId",
          "type": "uint256"
        }
      ],
      "name": "approve",
      "outputs": [],
      "stateMutability": "nonpayable",
      "type": "function"
    },
    {
      "inputs": [
        {
          "internalType": "address",
          "name": "owner",
          "type": "address"
        }
      ],
      "name": "balanceOf",
      "outputs": [
        {
          "internalType": "uint256",
          "name": "",
          "type": "uint256"
        }
      ],
      "stateMutability": "view",
      "type": "function"
    },
    {
      "inputs": [
        {
          "internalType": "uint256",
          "name": "tokenId",
          "type": "uint256"
        }
      ],
      "name": "getApproved",
      "outputs": [
        {
          "internalType": "address",
          "name": "",
          "type": "address"
        }
      ],
      "stateMutability": "view",
      "type": "function"
    },
    {
      "inputs": [
        {
          "internalType": "address",
          "name": "owner",
          "type": "address"
        },
        {
          "internalType": "address",
          "name": "operator",
          "type": "address"
        }
      ],
      "name": "isApprovedForAll",
      "outputs": [
        {
          "internalType": "bool",
          "name": "",
          "type": "bool"
        }
      ],
      "stateMutability": "view",
      "type": "function"
    },
    {
      "inputs": [],
      "name": "name",
      "outputs": [
        {
          "internalType": "string",
          "name": "",
          "type": "string"
        }
      ],
      "stateMutability": "view",
      "type": "function"
    },
    {
      "inputs": [
        {
          "internalType": "uint256",
          "name": "tokenId",
          "type": "uint256"
        }
      ],
      "name": "ownerOf",
      "outputs": [
        {
          "internalType": "address",
          "name": "",
          "type": "address"
        }
      ],
      "stateMutability": "view",
      "type": "function"
    },
    {
      "inputs": [
        {
          "internalType": "address",
          "name": "from",
          "type": "address"
        },
        {
          "internalType": "address",
          "name": "to",
          "type": "address"
        },
        {
          "internalType": "uint256",
          "name": "tokenId",
          "type": "uint256"
        }
      ],
      "name": "safeTransferFrom",
      "outputs": [],
      "stateMutability": "nonpayable",
      "type": "function"
    },
    {
      "inputs": [
        {
          "internalType": "address",
          "name": "from",
          "type": "address"
        },
        {
          "internalType": "address",
          "name": "to",
          "type": "address"
        },
        {
          "internalType": "uint256",
          "name": "tokenId",
          "type": "uint256"
        },
        {
          "internalType": "bytes",
          "name": "data",
          "type": "bytes"
        }
      ],
      "name": "safeTransferFrom",
      "outputs": [],
      "stateMutability": "nonpayable",
      "type": "function"
    },
    {
      "inputs": [
        {
          "internalType": "address",
          "name": "operator",
          "type": "address"
        },
        {
          "internalType": "bool",
          "name": "approved",
          "type": "bool"
        }
      ],
      "name": "setApprovalForAll",
      "outputs": [],
      "stateMutability": "nonpayable",
      "type": "function"
    },
    {
      "inputs": [
        {
          "internalType": "bytes4",
          "name": "interfaceId",
          "type": "bytes4"
        }
      ],
      "name": "supportsInterface",
      "outputs": [
        {
          "internalType": "bool",
          "name": "",
          "type": "bool"
        }
      ],
      "stateMutability": "view",
      "type": "function"
    },
    {
      "inputs": [],
      "name": "symbol",
      "outputs": [
        {
          "internalType": "string",
          "name": "",
          "type": "string"
        }
      ],
      "stateMutability": "view",
      "type": "function"
    },
    {
      "inputs": [
        {
          "internalType": "uint256",
          "name": "tokenId",
          "type": "uint256"
        }
      ],
      "name": "tokenURI",
      "outputs": [
        {
          "internalType": "string",
          "name": "",
          "type": "string"
        }
      ],
      "stateMutability": "view",
      "type": "function"
    },
    {
      "inputs": [
        {
          "internalType": "address",
          "name": "from",
          "type": "address"
        },
        {
          "internalType": "address",
          "name": "to",
          "type": "address"
        },
        {
          "internalType": "uint256",
          "name": "tokenId",
          "type": "uint256"
        }
      ],
      "name": "transferFrom",
      "outputs": [],
      "stateMutability": "nonpayable",
      "type": "function"
    },
    {
      "inputs": [
        {
          "internalType": "string",
          "name": "_tokenURI",
          "type": "string"
        }
      ],
      "name": "mint",
      "outputs": [],
      "stateMutability": "nonpayable",
      "type": "function"
    }
  ],
  "bytecode": "0x60806040523480156200001157600080fd5b5060405162002c1b38038062002c1b833981810160405281019062000037919062000239565b6040518060400160405280601581526020017f426f726564205065747320596163687420436c756200000000000000000000008152506040518060400160405280600481526020017f42505943000000000000000000000000000000000000000000000000000000008152508160009080519060200190620000bb9291906200011f565b508060019080519060200190620000d49291906200011f565b50505080600860006101000a81548173ffffffffffffffffffffffffffffffffffffffff021916908373ffffffffffffffffffffffffffffffffffffffff16021790555050620002cf565b8280546200012d906200029a565b90600052602060002090601f0160209004810192826200015157600085556200019d565b82601f106200016c57805160ff19168380011785556200019d565b828001600101855582156200019d579182015b828111156200019c5782518255916020019190600101906200017f565b5b509050620001ac9190620001b0565b5090565b5b80821115620001cb576000816000905550600101620001b1565b5090565b600080fd5b600073ffffffffffffffffffffffffffffffffffffffff82169050919050565b60006200020182620001d4565b9050919050565b6200021381620001f4565b81146200021f57600080fd5b50565b600081519050620002338162000208565b92915050565b600060208284031215620002525762000251620001cf565b5b6000620002628482850162000222565b91505092915050565b7f4e487b7100000000000000000000000000000000000000000000000000000000600052602260045260246000fd5b60006002820490506001821680620002b357607f821691505b602082108103620002c957620002c86200026b565b5b50919050565b61293c80620002df6000396000f3fe608060405234801561001057600080fd5b50600436106100ea5760003560e01c806370a082311161008c578063b88d4fde11610066578063b88d4fde1461025b578063c87b56dd14610277578063d85d3d27146102a7578063e985e9c5146102c3576100ea565b806370a08231146101f157806395d89b4114610221578063a22cb4651461023f576100ea565b8063095ea7b3116100c8578063095ea7b31461016d57806323b872dd1461018957806342842e0e146101a55780636352211e146101c1576100ea565b806301ffc9a7146100ef57806306fdde031461011f578063081812fc1461013d575b600080fd5b61010960048036038101906101049190611921565b6102f3565b6040516101169190611969565b60405180910390f35b6101276103d5565b6040516101349190611a1d565b60405180910390f35b61015760048036038101906101529190611a75565b610467565b6040516101649190611ae3565b60405180910390f35b61018760048036038101906101829190611b2a565b6104ad565b005b6101a3600480360381019061019e9190611b6a565b6105c4565b005b6101bf60048036038101906101ba9190611b6a565b610624565b005b6101db60048036038101906101d69190611a75565b610644565b6040516101e89190611ae3565b60405180910390f35b61020b60048036038101906102069190611bbd565b6106f5565b6040516102189190611bf9565b60405180910390f35b6102296107ac565b6040516102369190611a1d565b60405180910390f35b61025960048036038101906102549190611c40565b61083e565b005b61027560048036038101906102709190611db5565b610854565b005b610291600480360381019061028c9190611a75565b6108b6565b60405161029e9190611a1d565b60405180910390f35b6102c160048036038101906102bc9190611ed9565b6109c8565b005b6102dd60048036038101906102d89190611f22565b610a5c565b6040516102ea9190611969565b60405180910390f35b60007f80ac58cd000000000000000000000000000000000000000000000000000000007bffffffffffffffffffffffffffffffffffffffffffffffffffffffff1916827bffffffffffffffffffffffffffffffffffffffffffffffffffffffff191614806103be57507f5b5e139f000000000000000000000000000000000000000000000000000000007bffffffffffffffffffffffffffffffffffffffffffffffffffffffff1916827bffffffffffffffffffffffffffffffffffffffffffffffffffffffff1916145b806103ce57506103cd82610af0565b5b9050919050565b6060600080546103e490611f91565b80601f016020809104026020016040519081016040528092919081815260200182805461041090611f91565b801561045d5780601f106104325761010080835404028352916020019161045d565b820191906000526020600020905b81548152906001019060200180831161044057829003601f168201915b5050505050905090565b600061047282610b5a565b6004600083815260200190815260200160002060009054906101000a900473ffffffffffffffffffffffffffffffffffffffff169050919050565b60006104b882610644565b90508073ffffffffffffffffffffffffffffffffffffffff168373ffffffffffffffffffffffffffffffffffffffff1603610528576040517f08c379a000000000000000000000000000000000000000000000000000000000815260040161051f90612034565b60405180910390fd5b8073ffffffffffffffffffffffffffffffffffffffff16610547610ba5565b73ffffffffffffffffffffffffffffffffffffffff161480610576575061057581610570610ba5565b610a5c565b5b6105b5576040517f08c379a00000000000000000000000000000000000000000000000000000000081526004016105ac906120c6565b60405180910390fd5b6105bf8383610bad565b505050565b6105d56105cf610ba5565b82610c66565b610614576040517f08c379a000000000000000000000000000000000000000000000000000000000815260040161060b90612158565b60405180910390fd5b61061f838383610cfb565b505050565b61063f83838360405180602001604052806000815250610854565b505050565b6000806002600084815260200190815260200160002060009054906101000a900473ffffffffffffffffffffffffffffffffffffffff169050600073ffffffffffffffffffffffffffffffffffffffff168173ffffffffffffffffffffffffffffffffffffffff16036106ec576040517f08c379a00000000000000000000000000000000000000000000000000000000081526004016106e3906121c4565b60405180910390fd5b80915050919050565b60008073ffffffffffffffffffffffffffffffffffffffff168273ffffffffffffffffffffffffffffffffffffffff1603610765576040517f08c379a000000000000000000000000000000000000000000000000000000000815260040161075c90612256565b60405180910390fd5b600360008373ffffffffffffffffffffffffffffffffffffffff1673ffffffffffffffffffffffffffffffffffffffff168152602001908152602001600020549050919050565b6060600180546107bb90611f91565b80601f01602080910402602001604051908101604052809291908181526020018280546107e790611f91565b80156108345780601f1061080957610100808354040283529160200191610834565b820191906000526020600020905b81548152906001019060200180831161081757829003601f168201915b5050505050905090565b610850610849610ba5565b8383610f61565b5050565b61086561085f610ba5565b83610c66565b6108a4576040517f08c379a000000000000000000000000000000000000000000000000000000000815260040161089b90612158565b60405180910390fd5b6108b0848484846110cd565b50505050565b60606108c182610b5a565b60006006600084815260200190815260200160002080546108e190611f91565b80601f016020809104026020016040519081016040528092919081815260200182805461090d90611f91565b801561095a5780601f1061092f5761010080835404028352916020019161095a565b820191906000526020600020905b81548152906001019060200180831161093d57829003601f168201915b50505050509050600061096b611129565b905060008151036109805781925050506109c3565b6000825111156109b557808260405160200161099d9291906122b2565b604051602081830303815290604052925050506109c3565b6109be84611140565b925050505b919050565b6109d260076111a8565b60006109de60076111be565b90506109ea33826111cc565b6109f481836111ea565b610a21600860009054906101000a900473ffffffffffffffffffffffffffffffffffffffff16600161083e565b7fd9dc24857f317ed9abbbb42e920ede0104231eb1d3d70236a74887ffaf15986881604051610a509190611bf9565b60405180910390a15050565b6000600560008473ffffffffffffffffffffffffffffffffffffffff1673ffffffffffffffffffffffffffffffffffffffff16815260200190815260200160002060008373ffffffffffffffffffffffffffffffffffffffff1673ffffffffffffffffffffffffffffffffffffffff16815260200190815260200160002060009054906101000a900460ff16905092915050565b60007f01ffc9a7000000000000000000000000000000000000000000000000000000007bffffffffffffffffffffffffffffffffffffffffffffffffffffffff1916827bffffffffffffffffffffffffffffffffffffffffffffffffffffffff1916149050919050565b610b638161125e565b610ba2576040517f08c379a0000000000000000000000000000000000000000000000000000000008152600401610b99906121c4565b60405180910390fd5b50565b600033905090565b816004600083815260200190815260200160002060006101000a81548173ffffffffffffffffffffffffffffffffffffffff021916908373ffffffffffffffffffffffffffffffffffffffff160217905550808273ffffffffffffffffffffffffffffffffffffffff16610c2083610644565b73ffffffffffffffffffffffffffffffffffffffff167f8c5be1e5ebec7d5bd14f71427d1e84f3dd0314c0f7b2291e5b200ac8c7c3b92560405160405180910390a45050565b600080610c7283610644565b90508073ffffffffffffffffffffffffffffffffffffffff168473ffffffffffffffffffffffffffffffffffffffff161480610cb45750610cb38185610a5c565b5b80610cf257508373ffffffffffffffffffffffffffffffffffffffff16610cda84610467565b73ffffffffffffffffffffffffffffffffffffffff16145b91505092915050565b8273ffffffffffffffffffffffffffffffffffffffff16610d1b82610644565b73ffffffffffffffffffffffffffffffffffffffff1614610d71576040517f08c379a0000000000000000000000000000000000000000000000000000000008152600401610d6890612348565b60405180910390fd5b600073ffffffffffffffffffffffffffffffffffffffff168273ffffffffffffffffffffffffffffffffffffffff1603610de0576040517f08c379a0000000000000000000000000000000000000000000000000000000008152600401610dd7906123da565b60405180910390fd5b610deb8383836112ca565b610df6600082610bad565b6001600360008573ffffffffffffffffffffffffffffffffffffffff1673ffffffffffffffffffffffffffffffffffffffff1681526020019081526020016000206000828254610e469190612429565b925050819055506001600360008473ffffffffffffffffffffffffffffffffffffffff1673ffffffffffffffffffffffffffffffffffffffff1681526020019081526020016000206000828254610e9d919061245d565b92505081905550816002600083815260200190815260200160002060006101000a81548173ffffffffffffffffffffffffffffffffffffffff021916908373ffffffffffffffffffffffffffffffffffffffff160217905550808273ffffffffffffffffffffffffffffffffffffffff168473ffffffffffffffffffffffffffffffffffffffff167fddf252ad1be2c89b69c2b068fc378daa952ba7f163c4a11628f55a4df523b3ef60405160405180910390a4610f5c8383836112cf565b505050565b8173ffffffffffffffffffffffffffffffffffffffff168373ffffffffffffffffffffffffffffffffffffffff1603610fcf576040517f08c379a0000000000000000000000000000000000000000000000000000000008152600401610fc6906124ff565b60405180910390fd5b80600560008573ffffffffffffffffffffffffffffffffffffffff1673ffffffffffffffffffffffffffffffffffffffff16815260200190815260200160002060008473ffffffffffffffffffffffffffffffffffffffff1673ffffffffffffffffffffffffffffffffffffffff16815260200190815260200160002060006101000a81548160ff0219169083151502179055508173ffffffffffffffffffffffffffffffffffffffff168373ffffffffffffffffffffffffffffffffffffffff167f17307eab39ab6107e8899845ad3d59bd9653f200f220920489ca2b5937696c31836040516110c09190611969565b60405180910390a3505050565b6110d8848484610cfb565b6110e4848484846112d4565b611123576040517f08c379a000000000000000000000000000000000000000000000000000000000815260040161111a90612591565b60405180910390fd5b50505050565b606060405180602001604052806000815250905090565b606061114b82610b5a565b6000611155611129565b9050600081511161117557604051806020016040528060008152506111a0565b8061117f8461145b565b6040516020016111909291906122b2565b6040516020818303038152906040525b915050919050565b6001816000016000828254019250508190555050565b600081600001549050919050565b6111e68282604051806020016040528060008152506115bb565b5050565b6111f38261125e565b611232576040517f08c379a000000000000000000000000000000000000000000000000000000000815260040161122990612623565b60405180910390fd5b80600660008481526020019081526020016000209080519060200190611259929190611812565b505050565b60008073ffffffffffffffffffffffffffffffffffffffff166002600084815260200190815260200160002060009054906101000a900473ffffffffffffffffffffffffffffffffffffffff1673ffffffffffffffffffffffffffffffffffffffff1614159050919050565b505050565b505050565b60006112f58473ffffffffffffffffffffffffffffffffffffffff16611616565b1561144e578373ffffffffffffffffffffffffffffffffffffffff1663150b7a0261131e610ba5565b8786866040518563ffffffff1660e01b81526004016113409493929190612698565b6020604051808303816000875af192505050801561137c57506040513d601f19601f8201168201806040525081019061137991906126f9565b60015b6113fe573d80600081146113ac576040519150601f19603f3d011682016040523d82523d6000602084013e6113b1565b606091505b5060008151036113f6576040517f08c379a00000000000000000000000000000000000000000000000000000000081526004016113ed90612591565b60405180910390fd5b805181602001fd5b63150b7a0260e01b7bffffffffffffffffffffffffffffffffffffffffffffffffffffffff1916817bffffffffffffffffffffffffffffffffffffffffffffffffffffffff191614915050611453565b600190505b949350505050565b6060600082036114a2576040518060400160405280600181526020017f300000000000000000000000000000000000000000000000000000000000000081525090506115b6565b600082905060005b600082146114d45780806114bd90612726565b915050600a826114cd919061279d565b91506114aa565b60008167ffffffffffffffff8111156114f0576114ef611c8a565b5b6040519080825280601f01601f1916602001820160405280156115225781602001600182028036833780820191505090505b5090505b600085146115af5760018261153b9190612429565b9150600a8561154a91906127ce565b6030611556919061245d565b60f81b81838151811061156c5761156b6127ff565b5b60200101907effffffffffffffffffffffffffffffffffffffffffffffffffffffffffffff1916908160001a905350600a856115a8919061279d565b9450611526565b8093505050505b919050565b6115c58383611639565b6115d260008484846112d4565b611611576040517f08c379a000000000000000000000000000000000000000000000000000000000815260040161160890612591565b60405180910390fd5b505050565b6000808273ffffffffffffffffffffffffffffffffffffffff163b119050919050565b600073ffffffffffffffffffffffffffffffffffffffff168273ffffffffffffffffffffffffffffffffffffffff16036116a8576040517f08c379a000000000000000000000000000000000000000000000000000000000815260040161169f9061287a565b60405180910390fd5b6116b18161125e565b156116f1576040517f08c379a00000000000000000000000000000000000000000000000000000000081526004016116e8906128e6565b60405180910390fd5b6116fd600083836112ca565b6001600360008473ffffffffffffffffffffffffffffffffffffffff1673ffffffffffffffffffffffffffffffffffffffff168152602001908152602001600020600082825461174d919061245d565b92505081905550816002600083815260200190815260200160002060006101000a81548173ffffffffffffffffffffffffffffffffffffffff021916908373ffffffffffffffffffffffffffffffffffffffff160217905550808273ffffffffffffffffffffffffffffffffffffffff16600073ffffffffffffffffffffffffffffffffffffffff167fddf252ad1be2c89b69c2b068fc378daa952ba7f163c4a11628f55a4df523b3ef60405160405180910390a461180e600083836112cf565b5050565b82805461181e90611f91565b90600052602060002090601f0160209004810192826118405760008555611887565b82601f1061185957805160ff1916838001178555611887565b82800160010185558215611887579182015b8281111561188657825182559160200191906001019061186b565b5b5090506118949190611898565b5090565b5b808211156118b1576000816000905550600101611899565b5090565b6000604051905090565b600080fd5b600080fd5b60007fffffffff0000000000000000000000000000000000000000000000000000000082169050919050565b6118fe816118c9565b811461190957600080fd5b50565b60008135905061191b816118f5565b92915050565b600060208284031215611937576119366118bf565b5b60006119458482850161190c565b91505092915050565b60008115159050919050565b6119638161194e565b82525050565b600060208201905061197e600083018461195a565b92915050565b600081519050919050565b600082825260208201905092915050565b60005b838110156119be5780820151818401526020810190506119a3565b838111156119cd576000848401525b50505050565b6000601f19601f8301169050919050565b60006119ef82611984565b6119f9818561198f565b9350611a098185602086016119a0565b611a12816119d3565b840191505092915050565b60006020820190508181036000830152611a3781846119e4565b905092915050565b6000819050919050565b611a5281611a3f565b8114611a5d57600080fd5b50565b600081359050611a6f81611a49565b92915050565b600060208284031215611a8b57611a8a6118bf565b5b6000611a9984828501611a60565b91505092915050565b600073ffffffffffffffffffffffffffffffffffffffff82169050919050565b6000611acd82611aa2565b9050919050565b611add81611ac2565b82525050565b6000602082019050611af86000830184611ad4565b92915050565b611b0781611ac2565b8114611b1257600080fd5b50565b600081359050611b2481611afe565b92915050565b60008060408385031215611b4157611b406118bf565b5b6000611b4f85828601611b15565b9250506020611b6085828601611a60565b9150509250929050565b600080600060608486031215611b8357611b826118bf565b5b6000611b9186828701611b15565b9350506020611ba286828701611b15565b9250506040611bb386828701611a60565b9150509250925092565b600060208284031215611bd357611bd26118bf565b5b6000611be184828501611b15565b91505092915050565b611bf381611a3f565b82525050565b6000602082019050611c0e6000830184611bea565b92915050565b611c1d8161194e565b8114611c2857600080fd5b50565b600081359050611c3a81611c14565b92915050565b60008060408385031215611c5757611c566118bf565b5b6000611c6585828601611b15565b9250506020611c7685828601611c2b565b9150509250929050565b600080fd5b600080fd5b7f4e487b7100000000000000000000000000000000000000000000000000000000600052604160045260246000fd5b611cc2826119d3565b810181811067ffffffffffffffff82111715611ce157611ce0611c8a565b5b80604052505050565b6000611cf46118b5565b9050611d008282611cb9565b919050565b600067ffffffffffffffff821115611d2057611d1f611c8a565b5b611d29826119d3565b9050602081019050919050565b82818337600083830152505050565b6000611d58611d5384611d05565b611cea565b905082815260208101848484011115611d7457611d73611c85565b5b611d7f848285611d36565b509392505050565b600082601f830112611d9c57611d9b611c80565b5b8135611dac848260208601611d45565b91505092915050565b60008060008060808587031215611dcf57611dce6118bf565b5b6000611ddd87828801611b15565b9450506020611dee87828801611b15565b9350506040611dff87828801611a60565b925050606085013567ffffffffffffffff811115611e2057611e1f6118c4565b5b611e2c87828801611d87565b91505092959194509250565b600067ffffffffffffffff821115611e5357611e52611c8a565b5b611e5c826119d3565b9050602081019050919050565b6000611e7c611e7784611e38565b611cea565b905082815260208101848484011115611e9857611e97611c85565b5b611ea3848285611d36565b509392505050565b600082601f830112611ec057611ebf611c80565b5b8135611ed0848260208601611e69565b91505092915050565b600060208284031215611eef57611eee6118bf565b5b600082013567ffffffffffffffff811115611f0d57611f0c6118c4565b5b611f1984828501611eab565b91505092915050565b60008060408385031215611f3957611f386118bf565b5b6000611f4785828601611b15565b9250506020611f5885828601611b15565b9150509250929050565b7f4e487b7100000000000000000000000000000000000000000000000000000000600052602260045260246000fd5b60006002820490506001821680611fa957607f821691505b602082108103611fbc57611fbb611f62565b5b50919050565b7f4552433732313a20617070726f76616c20746f2063757272656e74206f776e6560008201527f7200000000000000000000000000000000000000000000000000000000000000602082015250565b600061201e60218361198f565b915061202982611fc2565b604082019050919050565b6000602082019050818103600083015261204d81612011565b9050919050565b7f4552433732313a20617070726f76652063616c6c6572206973206e6f7420746f60008201527f6b656e206f776e6572206e6f7220617070726f76656420666f7220616c6c0000602082015250565b60006120b0603e8361198f565b91506120bb82612054565b604082019050919050565b600060208201905081810360008301526120df816120a3565b9050919050565b7f4552433732313a2063616c6c6572206973206e6f7420746f6b656e206f776e6560008201527f72206e6f7220617070726f766564000000000000000000000000000000000000602082015250565b6000612142602e8361198f565b915061214d826120e6565b604082019050919050565b6000602082019050818103600083015261217181612135565b9050919050565b7f4552433732313a20696e76616c696420746f6b656e2049440000000000000000600082015250565b60006121ae60188361198f565b91506121b982612178565b602082019050919050565b600060208201905081810360008301526121dd816121a1565b9050919050565b7f4552433732313a2061646472657373207a65726f206973206e6f74206120766160008201527f6c6964206f776e65720000000000000000000000000000000000000000000000602082015250565b600061224060298361198f565b915061224b826121e4565b604082019050919050565b6000602082019050818103600083015261226f81612233565b9050919050565b600081905092915050565b600061228c82611984565b6122968185612276565b93506122a68185602086016119a0565b80840191505092915050565b60006122be8285612281565b91506122ca8284612281565b91508190509392505050565b7f4552433732313a207472616e736665722066726f6d20696e636f72726563742060008201527f6f776e6572000000000000000000000000000000000000000000000000000000602082015250565b600061233260258361198f565b915061233d826122d6565b604082019050919050565b6000602082019050818103600083015261236181612325565b9050919050565b7f4552433732313a207472616e7366657220746f20746865207a65726f2061646460008201527f7265737300000000000000000000000000000000000000000000000000000000602082015250565b60006123c460248361198f565b91506123cf82612368565b604082019050919050565b600060208201905081810360008301526123f3816123b7565b9050919050565b7f4e487b7100000000000000000000000000000000000000000000000000000000600052601160045260246000fd5b600061243482611a3f565b915061243f83611a3f565b925082821015612452576124516123fa565b5b828203905092915050565b600061246882611a3f565b915061247383611a3f565b9250827fffffffffffffffffffffffffffffffffffffffffffffffffffffffffffffffff038211156124a8576124a76123fa565b5b828201905092915050565b7f4552433732313a20617070726f766520746f2063616c6c657200000000000000600082015250565b60006124e960198361198f565b91506124f4826124b3565b602082019050919050565b60006020820190508181036000830152612518816124dc565b9050919050565b7f4552433732313a207472616e7366657220746f206e6f6e20455243373231526560008201527f63656976657220696d706c656d656e7465720000000000000000000000000000602082015250565b600061257b60328361198f565b91506125868261251f565b604082019050919050565b600060208201905081810360008301526125aa8161256e565b9050919050565b7f45524337323155524953746f726167653a2055524920736574206f66206e6f6e60008201527f6578697374656e7420746f6b656e000000000000000000000000000000000000602082015250565b600061260d602e8361198f565b9150612618826125b1565b604082019050919050565b6000602082019050818103600083015261263c81612600565b9050919050565b600081519050919050565b600082825260208201905092915050565b600061266a82612643565b612674818561264e565b93506126848185602086016119a0565b61268d816119d3565b840191505092915050565b60006080820190506126ad6000830187611ad4565b6126ba6020830186611ad4565b6126c76040830185611bea565b81810360608301526126d9818461265f565b905095945050505050565b6000815190506126f3816118f5565b92915050565b60006020828403121561270f5761270e6118bf565b5b600061271d848285016126e4565b91505092915050565b600061273182611a3f565b91507fffffffffffffffffffffffffffffffffffffffffffffffffffffffffffffffff8203612763576127626123fa565b5b600182019050919050565b7f4e487b7100000000000000000000000000000000000000000000000000000000600052601260045260246000fd5b60006127a882611a3f565b91506127b383611a3f565b9250826127c3576127c261276e565b5b828204905092915050565b60006127d982611a3f565b91506127e483611a3f565b9250826127f4576127f361276e565b5b828206905092915050565b7f4e487b7100000000000000000000000000000000000000000000000000000000600052603260045260246000fd5b7f4552433732313a206d696e7420746f20746865207a65726f2061646472657373600082015250565b600061286460208361198f565b915061286f8261282e565b602082019050919050565b6000602082019050818103600083015261289381612857565b9050919050565b7f4552433732313a20746f6b656e20616c7265616479206d696e74656400000000600082015250565b60006128d0601c8361198f565b91506128db8261289a565b602082019050919050565b600060208201905081810360008301526128ff816128c3565b905091905056fea26469706673582212209e6b61d38e3a28f3098777d8b9cddd3b4ee60ed2bf216f93a9277e08598086a964736f6c634300080d0033",
  "immutableReferences": {},
  "source": "// SPDX-License-Identifier: MIT\npragma solidity ^0.8.13;\n\nimport '@openzeppelin/contracts/token/ERC721/ERC721.sol';\nimport '@openzeppelin/contracts/token/ERC721/extensions/ERC721URIStorage.sol';\nimport '@openzeppelin/contracts/utils/Counters.sol';\n\ncontract BoredPetsNFT is ERC721URIStorage {\n  using Counters for Counters.Counter;\n  Counters.Counter private _tokenIds;\n  address marketplaceContract;\n  event NFTMinted(uint256);\n\n  constructor(address _marketplaceContract) ERC721('Bored Pets Yacht Club', 'BPYC') {\n    marketplaceContract = _marketplaceContract;\n  }\n\n  function mint(string memory _tokenURI) public {\n    _tokenIds.increment();\n    uint256 newTokenId = _tokenIds.current();\n    _safeMint(msg.sender, newTokenId);\n    _setTokenURI(newTokenId, _tokenURI);\n    setApprovalForAll(marketplaceContract, true);\n\n    emit NFTMinted(newTokenId);\n  }\n}",
  "sourcePath": "/home/wenjoy/workspace/projects/block-ground/packages/nft-marketplace/contracts/ethereum/BoredPetsNFT.sol",
  "compiler": {
    "name": "solc",
    "version": "0.8.13+commit.abaa5c0e.Emscripten.clang"
  },
  "schemaVersion": "3.4.8",
  "updatedAt": "2022-07-29T08:28:04.798Z",
  "devdoc": {
    "kind": "dev",
    "methods": {
      "approve(address,uint256)": {
        "details": "See {IERC721-approve}."
      },
      "balanceOf(address)": {
        "details": "See {IERC721-balanceOf}."
      },
      "getApproved(uint256)": {
        "details": "See {IERC721-getApproved}."
      },
      "isApprovedForAll(address,address)": {
        "details": "See {IERC721-isApprovedForAll}."
      },
      "name()": {
        "details": "See {IERC721Metadata-name}."
      },
      "ownerOf(uint256)": {
        "details": "See {IERC721-ownerOf}."
      },
      "safeTransferFrom(address,address,uint256)": {
        "details": "See {IERC721-safeTransferFrom}."
      },
      "safeTransferFrom(address,address,uint256,bytes)": {
        "details": "See {IERC721-safeTransferFrom}."
      },
      "setApprovalForAll(address,bool)": {
        "details": "See {IERC721-setApprovalForAll}."
      },
      "supportsInterface(bytes4)": {
        "details": "See {IERC165-supportsInterface}."
      },
      "symbol()": {
        "details": "See {IERC721Metadata-symbol}."
      },
      "tokenURI(uint256)": {
        "details": "See {IERC721Metadata-tokenURI}."
      },
      "transferFrom(address,address,uint256)": {
        "details": "See {IERC721-transferFrom}."
      }
    },
    "version": 1
  },
  "userdoc": {
    "kind": "user",
    "methods": {},
    "version": 1
  }
}